{
  "_format": "hh-sol-artifact-1",
  "contractName": "MillionairesMiningClubNft",
  "sourceName": "contracts/MillionairesMiningClubNft.sol",
  "abi": [
    {
      "anonymous": false,
      "inputs": [
        {
          "indexed": false,
          "internalType": "address",
          "name": "previousAdmin",
          "type": "address"
        },
        {
          "indexed": false,
          "internalType": "address",
          "name": "newAdmin",
          "type": "address"
        }
      ],
      "name": "AdminChanged",
      "type": "event"
    },
    {
      "anonymous": false,
      "inputs": [
        {
          "indexed": true,
          "internalType": "address",
          "name": "owner",
          "type": "address"
        },
        {
          "indexed": true,
          "internalType": "address",
          "name": "approved",
          "type": "address"
        },
        {
          "indexed": true,
          "internalType": "uint256",
          "name": "tokenId",
          "type": "uint256"
        }
      ],
      "name": "Approval",
      "type": "event"
    },
    {
      "anonymous": false,
      "inputs": [
        {
          "indexed": true,
          "internalType": "address",
          "name": "owner",
          "type": "address"
        },
        {
          "indexed": true,
          "internalType": "address",
          "name": "operator",
          "type": "address"
        },
        {
          "indexed": false,
          "internalType": "bool",
          "name": "approved",
          "type": "bool"
        }
      ],
      "name": "ApprovalForAll",
      "type": "event"
    },
    {
      "anonymous": false,
      "inputs": [
        {
          "indexed": true,
          "internalType": "address",
          "name": "beacon",
          "type": "address"
        }
      ],
      "name": "BeaconUpgraded",
      "type": "event"
    },
    {
      "anonymous": false,
      "inputs": [
        {
          "indexed": true,
          "internalType": "address",
          "name": "to",
          "type": "address"
        },
        {
          "indexed": true,
          "internalType": "uint256",
          "name": "tokenId",
          "type": "uint256"
        },
        {
          "indexed": false,
          "internalType": "uint256",
          "name": "value",
          "type": "uint256"
        }
      ],
      "name": "Mint",
      "type": "event"
    },
    {
      "anonymous": false,
      "inputs": [
        {
          "indexed": false,
          "internalType": "address",
          "name": "account",
          "type": "address"
        }
      ],
      "name": "Paused",
      "type": "event"
    },
    {
      "anonymous": false,
      "inputs": [
        {
          "indexed": true,
          "internalType": "bytes32",
          "name": "role",
          "type": "bytes32"
        },
        {
          "indexed": true,
          "internalType": "bytes32",
          "name": "previousAdminRole",
          "type": "bytes32"
        },
        {
          "indexed": true,
          "internalType": "bytes32",
          "name": "newAdminRole",
          "type": "bytes32"
        }
      ],
      "name": "RoleAdminChanged",
      "type": "event"
    },
    {
      "anonymous": false,
      "inputs": [
        {
          "indexed": true,
          "internalType": "bytes32",
          "name": "role",
          "type": "bytes32"
        },
        {
          "indexed": true,
          "internalType": "address",
          "name": "account",
          "type": "address"
        },
        {
          "indexed": true,
          "internalType": "address",
          "name": "sender",
          "type": "address"
        }
      ],
      "name": "RoleGranted",
      "type": "event"
    },
    {
      "anonymous": false,
      "inputs": [
        {
          "indexed": true,
          "internalType": "bytes32",
          "name": "role",
          "type": "bytes32"
        },
        {
          "indexed": true,
          "internalType": "address",
          "name": "account",
          "type": "address"
        },
        {
          "indexed": true,
          "internalType": "address",
          "name": "sender",
          "type": "address"
        }
      ],
      "name": "RoleRevoked",
      "type": "event"
    },
    {
      "anonymous": false,
      "inputs": [
        {
          "indexed": true,
          "internalType": "address",
          "name": "from",
          "type": "address"
        },
        {
          "indexed": true,
          "internalType": "address",
          "name": "to",
          "type": "address"
        },
        {
          "indexed": true,
          "internalType": "uint256",
          "name": "tokenId",
          "type": "uint256"
        }
      ],
      "name": "Transfer",
      "type": "event"
    },
    {
      "anonymous": false,
      "inputs": [
        {
          "indexed": false,
          "internalType": "address",
          "name": "account",
          "type": "address"
        }
      ],
      "name": "Unpaused",
      "type": "event"
    },
    {
      "anonymous": false,
      "inputs": [
        {
          "indexed": true,
          "internalType": "address",
          "name": "implementation",
          "type": "address"
        }
      ],
      "name": "Upgraded",
      "type": "event"
    },
    {
      "inputs": [],
      "name": "DEFAULT_ADMIN_ROLE",
      "outputs": [
        {
          "internalType": "bytes32",
          "name": "",
          "type": "bytes32"
        }
      ],
      "stateMutability": "view",
      "type": "function"
    },
    {
      "inputs": [],
      "name": "MINTER_ROLE",
      "outputs": [
        {
          "internalType": "bytes32",
          "name": "",
          "type": "bytes32"
        }
      ],
      "stateMutability": "view",
      "type": "function"
    },
    {
      "inputs": [],
      "name": "PAUSER_ROLE",
      "outputs": [
        {
          "internalType": "bytes32",
          "name": "",
          "type": "bytes32"
        }
      ],
      "stateMutability": "view",
      "type": "function"
    },
    {
      "inputs": [],
      "name": "UPGRADER_ROLE",
      "outputs": [
        {
          "internalType": "bytes32",
          "name": "",
          "type": "bytes32"
        }
      ],
      "stateMutability": "view",
      "type": "function"
    },
    {
      "inputs": [
        {
          "internalType": "address",
          "name": "to",
          "type": "address"
        },
        {
          "internalType": "uint256",
          "name": "tokenId",
          "type": "uint256"
        }
      ],
      "name": "approve",
      "outputs": [],
      "stateMutability": "nonpayable",
      "type": "function"
    },
    {
      "inputs": [
        {
          "internalType": "address",
          "name": "owner",
          "type": "address"
        }
      ],
      "name": "balanceOf",
      "outputs": [
        {
          "internalType": "uint256",
          "name": "",
          "type": "uint256"
        }
      ],
      "stateMutability": "view",
      "type": "function"
    },
    {
      "inputs": [],
      "name": "blockReward",
      "outputs": [
        {
          "internalType": "uint256",
          "name": "",
          "type": "uint256"
        }
      ],
      "stateMutability": "view",
      "type": "function"
    },
    {
      "inputs": [
        {
          "internalType": "address",
          "name": "to",
          "type": "address"
        },
        {
          "internalType": "uint256",
          "name": "start",
          "type": "uint256"
        },
        {
          "internalType": "uint256",
          "name": "end",
          "type": "uint256"
        }
      ],
      "name": "bulkSafeMint",
      "outputs": [],
      "stateMutability": "nonpayable",
      "type": "function"
    },
    {
      "inputs": [
        {
          "internalType": "uint256",
          "name": "tokenId",
          "type": "uint256"
        }
      ],
      "name": "burn",
      "outputs": [],
      "stateMutability": "nonpayable",
      "type": "function"
    },
    {
      "inputs": [
        {
          "internalType": "uint256",
          "name": "blockNumber",
          "type": "uint256"
        },
        {
          "internalType": "uint256",
          "name": "tokenId",
          "type": "uint256"
        }
      ],
      "name": "calculateReward",
      "outputs": [
        {
          "internalType": "uint256",
          "name": "",
          "type": "uint256"
        }
      ],
      "stateMutability": "view",
      "type": "function"
    },
    {
      "inputs": [],
      "name": "contractURI",
      "outputs": [
        {
          "internalType": "string",
          "name": "",
          "type": "string"
        }
      ],
      "stateMutability": "view",
      "type": "function"
    },
    {
      "inputs": [
        {
          "internalType": "uint256",
          "name": "",
          "type": "uint256"
        }
      ],
      "name": "createdAt",
      "outputs": [
        {
          "internalType": "uint256",
          "name": "",
          "type": "uint256"
        }
      ],
      "stateMutability": "view",
      "type": "function"
    },
    {
      "inputs": [
        {
          "internalType": "uint256",
          "name": "tokenId",
          "type": "uint256"
        }
      ],
      "name": "getApproved",
      "outputs": [
        {
          "internalType": "address",
          "name": "",
          "type": "address"
        }
      ],
      "stateMutability": "view",
      "type": "function"
    },
    {
      "inputs": [
        {
          "internalType": "bytes32",
          "name": "role",
          "type": "bytes32"
        }
      ],
      "name": "getRoleAdmin",
      "outputs": [
        {
          "internalType": "bytes32",
          "name": "",
          "type": "bytes32"
        }
      ],
      "stateMutability": "view",
      "type": "function"
    },
    {
      "inputs": [
        {
          "internalType": "bytes32",
          "name": "role",
          "type": "bytes32"
        },
        {
          "internalType": "address",
          "name": "account",
          "type": "address"
        }
      ],
      "name": "grantRole",
      "outputs": [],
      "stateMutability": "nonpayable",
      "type": "function"
    },
    {
      "inputs": [
        {
          "internalType": "bytes32",
          "name": "role",
          "type": "bytes32"
        },
        {
          "internalType": "address",
          "name": "account",
          "type": "address"
        }
      ],
      "name": "hasRole",
      "outputs": [
        {
          "internalType": "bool",
          "name": "",
          "type": "bool"
        }
      ],
      "stateMutability": "view",
      "type": "function"
    },
    {
      "inputs": [],
      "name": "initialize",
      "outputs": [],
      "stateMutability": "nonpayable",
      "type": "function"
    },
    {
      "inputs": [
        {
          "internalType": "uint256",
          "name": "_blockReward",
          "type": "uint256"
        }
      ],
      "name": "initialize2",
      "outputs": [],
      "stateMutability": "nonpayable",
      "type": "function"
    },
    {
      "inputs": [
        {
          "internalType": "address",
          "name": "_owner",
          "type": "address"
        },
        {
          "internalType": "address",
          "name": "_operator",
          "type": "address"
        }
      ],
      "name": "isApprovedForAll",
      "outputs": [
        {
          "internalType": "bool",
          "name": "isOperator",
          "type": "bool"
        }
      ],
      "stateMutability": "view",
      "type": "function"
    },
    {
      "inputs": [
        {
          "internalType": "uint256",
          "name": "",
          "type": "uint256"
        }
      ],
      "name": "lastMine",
      "outputs": [
        {
          "internalType": "uint256",
          "name": "",
          "type": "uint256"
        }
      ],
      "stateMutability": "view",
      "type": "function"
    },
    {
      "inputs": [
        {
          "internalType": "uint256",
          "name": "tokenId",
          "type": "uint256"
        }
      ],
      "name": "mine",
      "outputs": [],
      "stateMutability": "nonpayable",
      "type": "function"
    },
    {
      "inputs": [],
      "name": "mineAll",
      "outputs": [],
      "stateMutability": "nonpayable",
      "type": "function"
    },
    {
      "inputs": [],
      "name": "name",
      "outputs": [
        {
          "internalType": "string",
          "name": "",
          "type": "string"
        }
      ],
      "stateMutability": "view",
      "type": "function"
    },
    {
      "inputs": [],
      "name": "owner",
      "outputs": [
        {
          "internalType": "address",
          "name": "",
          "type": "address"
        }
      ],
      "stateMutability": "view",
      "type": "function"
    },
    {
      "inputs": [
        {
          "internalType": "uint256",
          "name": "tokenId",
          "type": "uint256"
        }
      ],
      "name": "ownerOf",
      "outputs": [
        {
          "internalType": "address",
          "name": "",
          "type": "address"
        }
      ],
      "stateMutability": "view",
      "type": "function"
    },
    {
      "inputs": [],
      "name": "pause",
      "outputs": [],
      "stateMutability": "nonpayable",
      "type": "function"
    },
    {
      "inputs": [],
      "name": "paused",
      "outputs": [
        {
          "internalType": "bool",
          "name": "",
          "type": "bool"
        }
      ],
      "stateMutability": "view",
      "type": "function"
    },
    {
      "inputs": [
        {
          "internalType": "bytes32",
          "name": "role",
          "type": "bytes32"
        },
        {
          "internalType": "address",
          "name": "account",
          "type": "address"
        }
      ],
      "name": "renounceRole",
      "outputs": [],
      "stateMutability": "nonpayable",
      "type": "function"
    },
    {
      "inputs": [
        {
          "internalType": "bytes32",
          "name": "role",
          "type": "bytes32"
        },
        {
          "internalType": "address",
          "name": "account",
          "type": "address"
        }
      ],
      "name": "revokeRole",
      "outputs": [],
      "stateMutability": "nonpayable",
      "type": "function"
    },
    {
      "inputs": [
        {
          "internalType": "address",
          "name": "to",
          "type": "address"
        },
        {
          "internalType": "uint256",
          "name": "tokenId",
          "type": "uint256"
        }
      ],
      "name": "safeMint",
      "outputs": [],
      "stateMutability": "nonpayable",
      "type": "function"
    },
    {
      "inputs": [
        {
          "internalType": "address",
          "name": "from",
          "type": "address"
        },
        {
          "internalType": "address",
          "name": "to",
          "type": "address"
        },
        {
          "internalType": "uint256",
          "name": "tokenId",
          "type": "uint256"
        }
      ],
      "name": "safeTransferFrom",
      "outputs": [],
      "stateMutability": "nonpayable",
      "type": "function"
    },
    {
      "inputs": [
        {
          "internalType": "address",
          "name": "from",
          "type": "address"
        },
        {
          "internalType": "address",
          "name": "to",
          "type": "address"
        },
        {
          "internalType": "uint256",
          "name": "tokenId",
          "type": "uint256"
        },
        {
          "internalType": "bytes",
          "name": "_data",
          "type": "bytes"
        }
      ],
      "name": "safeTransferFrom",
      "outputs": [],
      "stateMutability": "nonpayable",
      "type": "function"
    },
    {
      "inputs": [
        {
          "internalType": "address",
          "name": "operator",
          "type": "address"
        },
        {
          "internalType": "bool",
          "name": "approved",
          "type": "bool"
        }
      ],
      "name": "setApprovalForAll",
      "outputs": [],
      "stateMutability": "nonpayable",
      "type": "function"
    },
    {
      "inputs": [
        {
          "internalType": "uint256",
          "name": "blockreward",
          "type": "uint256"
        }
      ],
      "name": "setBlockReward",
      "outputs": [],
      "stateMutability": "nonpayable",
      "type": "function"
    },
    {
      "inputs": [
        {
          "internalType": "string",
          "name": "ipfsGateWay",
          "type": "string"
        }
      ],
      "name": "setIpfsGateway",
      "outputs": [],
      "stateMutability": "nonpayable",
      "type": "function"
    },
    {
      "inputs": [
        {
          "internalType": "address",
          "name": "contractAddress",
          "type": "address"
        }
      ],
      "name": "setMillionairesMiningClubCoinAddress",
      "outputs": [],
      "stateMutability": "nonpayable",
      "type": "function"
    },
    {
      "inputs": [
        {
          "internalType": "bytes4",
          "name": "interfaceId",
          "type": "bytes4"
        }
      ],
      "name": "supportsInterface",
      "outputs": [
        {
          "internalType": "bool",
          "name": "",
          "type": "bool"
        }
      ],
      "stateMutability": "view",
      "type": "function"
    },
    {
      "inputs": [],
      "name": "symbol",
      "outputs": [
        {
          "internalType": "string",
          "name": "",
          "type": "string"
        }
      ],
      "stateMutability": "view",
      "type": "function"
    },
    {
      "inputs": [
        {
          "internalType": "uint256",
          "name": "index",
          "type": "uint256"
        }
      ],
      "name": "tokenByIndex",
      "outputs": [
        {
          "internalType": "uint256",
          "name": "",
          "type": "uint256"
        }
      ],
      "stateMutability": "view",
      "type": "function"
    },
    {
      "inputs": [
        {
          "internalType": "address",
          "name": "owner",
          "type": "address"
        },
        {
          "internalType": "uint256",
          "name": "index",
          "type": "uint256"
        }
      ],
      "name": "tokenOfOwnerByIndex",
      "outputs": [
        {
          "internalType": "uint256",
          "name": "",
          "type": "uint256"
        }
      ],
      "stateMutability": "view",
      "type": "function"
    },
    {
      "inputs": [
        {
          "internalType": "uint256",
          "name": "tokenId",
          "type": "uint256"
        }
      ],
      "name": "tokenURI",
      "outputs": [
        {
          "internalType": "string",
          "name": "",
          "type": "string"
        }
      ],
      "stateMutability": "view",
      "type": "function"
    },
    {
      "inputs": [],
      "name": "totalSupply",
      "outputs": [
        {
          "internalType": "uint256",
          "name": "",
          "type": "uint256"
        }
      ],
      "stateMutability": "view",
      "type": "function"
    },
    {
      "inputs": [
        {
          "internalType": "address",
          "name": "from",
          "type": "address"
        },
        {
          "internalType": "address",
          "name": "to",
          "type": "address"
        },
        {
          "internalType": "uint256",
          "name": "tokenId",
          "type": "uint256"
        }
      ],
      "name": "transferFrom",
      "outputs": [],
      "stateMutability": "nonpayable",
      "type": "function"
    },
    {
      "inputs": [
        {
          "internalType": "address",
          "name": "newOwner",
          "type": "address"
        }
      ],
      "name": "transferOwnership",
      "outputs": [],
      "stateMutability": "nonpayable",
      "type": "function"
    },
    {
      "inputs": [],
      "name": "unpause",
      "outputs": [],
      "stateMutability": "nonpayable",
      "type": "function"
    },
    {
      "inputs": [
        {
          "internalType": "address",
          "name": "newImplementation",
          "type": "address"
        }
      ],
      "name": "upgradeTo",
      "outputs": [],
      "stateMutability": "nonpayable",
      "type": "function"
    },
    {
      "inputs": [
        {
          "internalType": "address",
          "name": "newImplementation",
          "type": "address"
        },
        {
          "internalType": "bytes",
          "name": "data",
          "type": "bytes"
        }
      ],
      "name": "upgradeToAndCall",
      "outputs": [],
      "stateMutability": "payable",
      "type": "function"
    }
  ],
  "bytecode": "0x608060405234801561001057600080fd5b506139f5806100206000396000f3fe6080604052600436106102885760003560e01c80635c975abb1161015a578063a22cb465116100c1578063d547741f1161007a578063d547741f146107af578063e63ab1e9146107cf578063e8a3d485146107f1578063e985e9c514610806578063f2fde38b14610826578063f72c0d8b1461084657610288565b8063a22cb465146106df578063a810a3e8146106ff578063b88d4fde1461072d578063c87b56dd1461074d578063cc50112d1461076d578063d53913931461078d57610288565b80638456cb59116101135780638456cb59146106415780638da5cb5b1461065657806391d148541461067557806395d89b4114610695578063a1448194146106aa578063a217fddf146106ca57610288565b80635c975abb1461059f5780636352211e146105b75780636e26c032146105d757806370a08231146105ec5780638129fc1c1461060c5780638298c0a61461062157610288565b80632f745c59116101fe57806342966c68116101b757806342966c68146104de57806344e1748a146104fe5780634d4748981461051e5780634f1ef2861461053e5780634f6ccce71461055157806350a1676e1461057157610288565b80632f745c59146104295780632fccaf3b1461044957806336568abe146104695780633659cfe6146104895780633f4ba83a146104a957806342842e0e146104be57610288565b806313ed08461161025057806313ed08461461036357806318160ddd146103835780631a18e7071461039857806323b872dd146103b8578063248a9ca3146103d85780632f2ff15d1461040957610288565b806301ffc9a71461028d57806306fdde03146102c2578063081812fc146102e4578063095ea7b31461031c5780630ac168a11461033e575b600080fd5b34801561029957600080fd5b506102ad6102a83660046133c1565b61087a565b60405190151581526020015b60405180910390f35b3480156102ce57600080fd5b506102d761088d565b6040516102b99190613672565b3480156102f057600080fd5b506103046102ff366004613387565b61091f565b6040516001600160a01b0390911681526020016102b9565b34801561032857600080fd5b5061033c61033736600461332c565b6109b9565b005b34801561034a57600080fd5b506103556101f75481565b6040519081526020016102b9565b34801561036f57600080fd5b5061035561037e36600461343f565b610acf565b34801561038f57600080fd5b50609954610355565b3480156103a457600080fd5b5061033c6103b3366004613387565b610b06565b3480156103c457600080fd5b5061033c6103d3366004613205565b610b1a565b3480156103e457600080fd5b506103556103f3366004613387565b600090815261012d602052604090206001015490565b34801561041557600080fd5b5061033c61042436600461339f565b610b4c565b34801561043557600080fd5b5061035561044436600461332c565b610b73565b34801561045557600080fd5b5061033c6104643660046131b9565b610c09565b34801561047557600080fd5b5061033c61048436600461339f565b610c39565b34801561049557600080fd5b5061033c6104a43660046131b9565b610cb7565b3480156104b557600080fd5b5061033c610cde565b3480156104ca57600080fd5b5061033c6104d9366004613205565b610cff565b3480156104ea57600080fd5b5061033c6104f9366004613387565b610d1a565b34801561050a57600080fd5b5061033c6105193660046133f9565b610d91565b34801561052a57600080fd5b5061033c610539366004613387565b610db1565b61033c61054c3660046132e0565b610eba565b34801561055d57600080fd5b5061035561056c366004613387565b610ecf565b34801561057d57600080fd5b5061035561058c366004613387565b6101f56020526000908152604090205481565b3480156105ab57600080fd5b5060fb5460ff166102ad565b3480156105c357600080fd5b506103046105d2366004613387565b610f70565b3480156105e357600080fd5b5061033c610fe7565b3480156105f857600080fd5b506103556106073660046131b9565b611059565b34801561061857600080fd5b5061033c6110e0565b34801561062d57600080fd5b5061033c61063c366004613387565b611243565b34801561064d57600080fd5b5061033c611307565b34801561066257600080fd5b506101fa546001600160a01b0316610304565b34801561068157600080fd5b506102ad61069036600461339f565b611328565b3480156106a157600080fd5b506102d7611354565b3480156106b657600080fd5b5061033c6106c536600461332c565b611363565b3480156106d657600080fd5b50610355600081565b3480156106eb57600080fd5b5061033c6106fa3660046132a6565b611386565b34801561070b57600080fd5b5061035561071a366004613387565b6101f66020526000908152604090205481565b34801561073957600080fd5b5061033c610748366004613240565b611458565b34801561075957600080fd5b506102d7610768366004613387565b611490565b34801561077957600080fd5b5061033c610788366004613355565b6114e2565b34801561079957600080fd5b5061035560008051602061394f83398151915281565b3480156107bb57600080fd5b5061033c6107ca36600461339f565b611548565b3480156107db57600080fd5b5061035560008051602061390883398151915281565b3480156107fd57600080fd5b506102d761156f565b34801561081257600080fd5b506102ad6108213660046131d3565b6115ce565b34801561083257600080fd5b5061033c6108413660046131b9565b6115e1565b34801561085257600080fd5b506103557f189ab7a9244df0848122154315af71fe140f3db0fe014031783b0946b8c9d2e381565b600061088582611624565b90505b919050565b60606065805461089c90613845565b80601f01602080910402602001604051908101604052809291908181526020018280546108c890613845565b80156109155780601f106108ea57610100808354040283529160200191610915565b820191906000526020600020905b8154815290600101906020018083116108f857829003601f168201915b5050505050905090565b6000818152606760205260408120546001600160a01b031661099d5760405162461bcd60e51b815260206004820152602c60248201527f4552433732313a20617070726f76656420717565727920666f72206e6f6e657860448201526b34b9ba32b73a103a37b5b2b760a11b60648201526084015b60405180910390fd5b506000908152606960205260409020546001600160a01b031690565b60006109c482610f70565b9050806001600160a01b0316836001600160a01b03161415610a325760405162461bcd60e51b815260206004820152602160248201527f4552433732313a20617070726f76616c20746f2063757272656e74206f776e656044820152603960f91b6064820152608401610994565b336001600160a01b0382161480610a4e5750610a4e8133610821565b610ac05760405162461bcd60e51b815260206004820152603860248201527f4552433732313a20617070726f76652063616c6c6572206973206e6f74206f7760448201527f6e6572206e6f7220617070726f76656420666f7220616c6c00000000000000006064820152608401610994565b610aca8383611649565b505050565b60008181526101f660205260408120548190610aec9085906116b7565b90506000610afd826101f7546116c3565b95945050505050565b6000610b1381335b6116cf565b506101f755565b610b25335b82611733565b610b415760405162461bcd60e51b81526004016109949061374f565b610aca83838361180a565b600082815261012d6020526040902060010154610b698133610b0e565b610aca83836119b5565b6000610b7e83611059565b8210610be05760405162461bcd60e51b815260206004820152602b60248201527f455243373231456e756d657261626c653a206f776e657220696e646578206f7560448201526a74206f6620626f756e647360a81b6064820152608401610994565b506001600160a01b03919091166000908152609760209081526040808320938352929052205490565b6000610c158133610b0e565b506101f880546001600160a01b0319166001600160a01b0392909216919091179055565b6001600160a01b0381163314610ca95760405162461bcd60e51b815260206004820152602f60248201527f416363657373436f6e74726f6c3a2063616e206f6e6c792072656e6f756e636560448201526e103937b632b9903337b91039b2b63360891b6064820152608401610994565b610cb38282611a3c565b5050565b610cc081611aa4565b610cdb81604051806020016040528060008152506000611acf565b50565b600080516020613908833981519152610cf78133610b0e565b610cdb611c50565b610aca83838360405180602001604052806000815250611458565b610d2333610b1f565b610d885760405162461bcd60e51b815260206004820152603060248201527f4552433732314275726e61626c653a2063616c6c6572206973206e6f74206f7760448201526f1b995c881b9bdc88185c1c1c9bdd995960821b6064820152608401610994565b610cdb81611ce3565b6000610d9d8133610b0e565b8151610aca906101f990602085019061303c565b60fb5460ff1615610dd45760405162461bcd60e51b8152600401610994906136d7565b33610dde82610f70565b6001600160a01b031614610df157600080fd5b6000610dfd4383610acf565b6101f8546040516340c10f1960e01b8152336004820152602481018390529192506001600160a01b03169081906340c10f1990604401600060405180830381600087803b158015610e4d57600080fd5b505af1158015610e61573d6000803e3d6000fd5b50505060008481526101f66020526040908190204390555184915033907f4c209b5fc8ad50758f13e2e1088ba56a560dff690a1c6fef26394f4c03821c4f90610ead9086815260200190565b60405180910390a3505050565b610ec382611aa4565b610cb382826001611acf565b6000610eda60995490565b8210610f3d5760405162461bcd60e51b815260206004820152602c60248201527f455243373231456e756d657261626c653a20676c6f62616c20696e646578206f60448201526b7574206f6620626f756e647360a01b6064820152608401610994565b60998281548110610f5e57634e487b7160e01b600052603260045260246000fd5b90600052602060002001549050919050565b6000818152606760205260408120546001600160a01b0316806108855760405162461bcd60e51b815260206004820152602960248201527f4552433732313a206f776e657220717565727920666f72206e6f6e657869737460448201526832b73a103a37b5b2b760b91b6064820152608401610994565b60fb5460ff161561100a5760405162461bcd60e51b8152600401610994906136d7565b600061101533611059565b90506000811161102457600080fd5b60005b81811015610cb357600061103b3383610b73565b905061104681610db1565b508061105181613880565b915050611027565b60006001600160a01b0382166110c45760405162461bcd60e51b815260206004820152602a60248201527f4552433732313a2062616c616e636520717565727920666f7220746865207a65604482015269726f206164647265737360b01b6064820152608401610994565b506001600160a01b031660009081526068602052604090205490565b600054610100900460ff16806110f9575060005460ff16155b6111155760405162461bcd60e51b815260040161099490613701565b600054610100900460ff16158015611140576000805460ff1961ff0019909116610100171660011790555b61119a6040518060400160405280601981526020017f4d696c6c696f6e616972652773204d696e696e6720436c7562000000000000008152506040518060400160405280600381526020016213535560ea1b815250611cec565b6111a2611d7c565b6111aa611d7c565b6111b2611df4565b6111ba611d7c565b6111c2611d7c565b6111ca611e64565b6111d5600033611ecb565b6111ed60008051602061390883398151915233611ecb565b61120560008051602061394f83398151915233611ecb565b61122f7f189ab7a9244df0848122154315af71fe140f3db0fe014031783b0946b8c9d2e333611ecb565b8015610cdb576000805461ff001916905550565b600054610100900460ff168061125c575060005460ff16155b6112785760405162461bcd60e51b815260040161099490613701565b600054610100900460ff161580156112a3576000805460ff1961ff0019909116610100171660011790555b6101f78290556040805160808101909152605180825261396f602083013980516112d6916101f99160209091019061303c565b506101fa80546001600160a01b031916331790556112f26110e0565b8015610cb3576000805461ff00191690555050565b6000805160206139088339815191526113208133610b0e565b610cdb611ed5565b600091825261012d602090815260408084206001600160a01b0393909316845291905290205460ff1690565b60606066805461089c90613845565b60008051602061394f83398151915261137c8133610b0e565b610aca8383611f2d565b6001600160a01b0382163314156113df5760405162461bcd60e51b815260206004820152601960248201527f4552433732313a20617070726f766520746f2063616c6c6572000000000000006044820152606401610994565b336000818152606a602090815260408083206001600160a01b0387168085529252909120805460ff1916841515179055906001600160a01b03167f17307eab39ab6107e8899845ad3d59bd9653f200f220920489ca2b5937696c318360405161144c911515815260200190565b60405180910390a35050565b6114623383611733565b61147e5760405162461bcd60e51b81526004016109949061374f565b61148a84848484611f47565b50505050565b6060600061149d83611f7a565b8051909150156114ae579050610888565b6101f96114ba84611f85565b6040516020016114cb92919061358b565b604051602081830303815290604052915050919050565b60008051602061394f8339815191526114fb8133610b0e565b825b8281116115415761150e8582611f2d565b60008181526101f56020908152604080832043908190556101f6909252909120558061153981613880565b9150506114fd565b5050505050565b600082815261012d60205260409020600101546115658133610b0e565b610aca8383611a3c565b606060006040518060400160405280601681526020017531b7b73a3930b1ba16b6b2ba30b230ba30973539b7b760511b81525090506101f9816040516020016115b992919061356f565b60405160208183030381529060405291505090565b60006115da83836120a0565b9392505050565b60006115ed8133610b0e565b6001600160a01b03821661160057600080fd5b506101fa80546001600160a01b0319166001600160a01b0392909216919091179055565b60006001600160e01b03198216637965db0b60e01b14806108855750610885826120d0565b600081815260696020526040902080546001600160a01b0319166001600160a01b038416908117909155819061167e82610f70565b6001600160a01b03167f8c5be1e5ebec7d5bd14f71427d1e84f3dd0314c0f7b2291e5b200ac8c7c3b92560405160405180910390a45050565b60006115da82846137eb565b60006115da82846137cc565b6116d98282611328565b610cb3576116f1816001600160a01b031660146120f5565b6116fc8360206120f5565b60405160200161170d9291906135c0565b60408051601f198184030181529082905262461bcd60e51b825261099491600401613672565b6000818152606760205260408120546001600160a01b03166117ac5760405162461bcd60e51b815260206004820152602c60248201527f4552433732313a206f70657261746f7220717565727920666f72206e6f6e657860448201526b34b9ba32b73a103a37b5b2b760a11b6064820152608401610994565b60006117b783610f70565b9050806001600160a01b0316846001600160a01b031614806117f25750836001600160a01b03166117e78461091f565b6001600160a01b0316145b80611802575061180281856115ce565b949350505050565b826001600160a01b031661181d82610f70565b6001600160a01b0316146118855760405162461bcd60e51b815260206004820152602960248201527f4552433732313a207472616e73666572206f6620746f6b656e2074686174206960448201526839903737ba1037bbb760b91b6064820152608401610994565b6001600160a01b0382166118e75760405162461bcd60e51b8152602060048201526024808201527f4552433732313a207472616e7366657220746f20746865207a65726f206164646044820152637265737360e01b6064820152608401610994565b6118f28383836122d7565b6118fd600082611649565b6001600160a01b03831660009081526068602052604081208054600192906119269084906137eb565b90915550506001600160a01b03821660009081526068602052604081208054600192906119549084906137a0565b909155505060008181526067602052604080822080546001600160a01b0319166001600160a01b0386811691821790925591518493918716917fddf252ad1be2c89b69c2b068fc378daa952ba7f163c4a11628f55a4df523b3ef91a4505050565b6119bf8282611328565b610cb357600082815261012d602090815260408083206001600160a01b03851684529091529020805460ff191660011790556119f83390565b6001600160a01b0316816001600160a01b0316837f2f8788117e7eff1d82e926ec794901d17c78024a50270940304540a733656f0d60405160405180910390a45050565b611a468282611328565b15610cb357600082815261012d602090815260408083206001600160a01b0385168085529252808320805460ff1916905551339285917ff6391f5c32d9c69d2a47ea670b442974b53935d1edc7fd64eb21e047a839171b9190a45050565b7f189ab7a9244df0848122154315af71fe140f3db0fe014031783b0946b8c9d2e3610cb38133610b0e565b6000611b027f360894a13ba1a3210667c828492db98dca3e2076cc3735a920a3ca505d382bbc546001600160a01b031690565b9050611b0d84612305565b600083511180611b1a5750815b15611b2b57611b2984846123aa565b505b7f4910fdfa16fed3260ed0e7147f7cc6da11a60208b5b9406d12a635614ffd9143805460ff1661154157805460ff191660011781556040516001600160a01b0383166024820152611baa90869060440160408051601f198184030181529190526020810180516001600160e01b0316631b2ce7f360e11b1790526123aa565b50805460ff191681557f360894a13ba1a3210667c828492db98dca3e2076cc3735a920a3ca505d382bbc546001600160a01b03838116911614611c475760405162461bcd60e51b815260206004820152602f60248201527f45524331393637557067726164653a207570677261646520627265616b73206660448201526e75727468657220757067726164657360881b6064820152608401610994565b6115418561248c565b60fb5460ff16611c995760405162461bcd60e51b815260206004820152601460248201527314185d5cd8589b194e881b9bdd081c185d5cd95960621b6044820152606401610994565b60fb805460ff191690557f5db9ee0a495bf2e6ff9c91a7834c1ba4fdd244a5e8aa4e537bd38aeae4b073aa335b6040516001600160a01b03909116815260200160405180910390a1565b610cdb816124cc565b600054610100900460ff1680611d05575060005460ff16155b611d215760405162461bcd60e51b815260040161099490613701565b600054610100900460ff16158015611d4c576000805460ff1961ff0019909116610100171660011790555b611d5461250c565b611d5c61250c565b611d66838361257f565b8015610aca576000805461ff0019169055505050565b600054610100900460ff1680611d95575060005460ff16155b611db15760405162461bcd60e51b815260040161099490613701565b600054610100900460ff16158015611ddc576000805460ff1961ff0019909116610100171660011790555b611de461250c565b611dec61250c565b61122f61250c565b600054610100900460ff1680611e0d575060005460ff16155b611e295760405162461bcd60e51b815260040161099490613701565b600054610100900460ff16158015611e54576000805460ff1961ff0019909116610100171660011790555b611e5c61250c565b61122f61261d565b600054610100900460ff1680611e7d575060005460ff16155b611e995760405162461bcd60e51b815260040161099490613701565b600054610100900460ff16158015611de4576000805460ff1961ff001990911661010017166001179055611dec61250c565b610cb382826119b5565b60fb5460ff1615611ef85760405162461bcd60e51b8152600401610994906136d7565b60fb805460ff191660011790557f62e78cea01bee320cd4e420270b5ea74000d11b0c9f74754ebdbfc544b05a258611cc63390565b610cb382826040518060200160405280600081525061269b565b611f5284848461180a565b611f5e848484846126ce565b61148a5760405162461bcd60e51b815260040161099490613685565b6060610885826127db565b606081611faa57506040805180820190915260018152600360fc1b6020820152610888565b8160005b8115611fd45780611fbe81613880565b9150611fcd9050600a836137b8565b9150611fae565b60008167ffffffffffffffff811115611ffd57634e487b7160e01b600052604160045260246000fd5b6040519080825280601f01601f191660200182016040528015612027576020820181803683370190505b5090505b84156118025761203c6001836137eb565b9150612049600a8661389b565b6120549060306137a0565b60f81b81838151811061207757634e487b7160e01b600052603260045260246000fd5b60200101906001600160f81b031916908160001a905350612099600a866137b8565b945061202b565b6001600160a01b038083166000908152606a6020908152604080832093851683529290529081205460ff166115da565b60006001600160e01b0319821663780e9d6360e01b148061088557506108858261295b565b606060006121048360026137cc565b61210f9060026137a0565b67ffffffffffffffff81111561213557634e487b7160e01b600052604160045260246000fd5b6040519080825280601f01601f19166020018201604052801561215f576020820181803683370190505b509050600360fc1b8160008151811061218857634e487b7160e01b600052603260045260246000fd5b60200101906001600160f81b031916908160001a905350600f60fb1b816001815181106121c557634e487b7160e01b600052603260045260246000fd5b60200101906001600160f81b031916908160001a90535060006121e98460026137cc565b6121f49060016137a0565b90505b6001811115612288576f181899199a1a9b1b9c1cb0b131b232b360811b85600f166010811061223657634e487b7160e01b600052603260045260246000fd5b1a60f81b82828151811061225a57634e487b7160e01b600052603260045260246000fd5b60200101906001600160f81b031916908160001a90535060049490941c936122818161382e565b90506121f7565b5083156115da5760405162461bcd60e51b815260206004820181905260248201527f537472696e67733a20686578206c656e67746820696e73756666696369656e746044820152606401610994565b60fb5460ff16156122fa5760405162461bcd60e51b8152600401610994906136d7565b610aca8383836129ab565b803b6123695760405162461bcd60e51b815260206004820152602d60248201527f455243313936373a206e657720696d706c656d656e746174696f6e206973206e60448201526c1bdd08184818dbdb9d1c9858dd609a1b6064820152608401610994565b7f360894a13ba1a3210667c828492db98dca3e2076cc3735a920a3ca505d382bbc80546001600160a01b0319166001600160a01b0392909216919091179055565b6060823b6124095760405162461bcd60e51b815260206004820152602660248201527f416464726573733a2064656c65676174652063616c6c20746f206e6f6e2d636f6044820152651b9d1c9858dd60d21b6064820152608401610994565b600080846001600160a01b0316846040516124249190613524565b600060405180830381855af49150503d806000811461245f576040519150601f19603f3d011682016040523d82523d6000602084013e612464565b606091505b5091509150610afd828260405180606001604052806027815260200161392860279139612a68565b61249581612305565b6040516001600160a01b038216907fbc7cd75a20ee27fd9adebab32041f755214dbc6bffa90cc0225b39da2e5c2d3b90600090a250565b6124d581612aa1565b600081815260c96020526040902080546124ee90613845565b159050610cdb57600081815260c960205260408120610cdb916130c0565b600054610100900460ff1680612525575060005460ff16155b6125415760405162461bcd60e51b815260040161099490613701565b600054610100900460ff1615801561122f576000805460ff1961ff0019909116610100171660011790558015610cdb576000805461ff001916905550565b600054610100900460ff1680612598575060005460ff16155b6125b45760405162461bcd60e51b815260040161099490613701565b600054610100900460ff161580156125df576000805460ff1961ff0019909116610100171660011790555b82516125f290606590602086019061303c565b50815161260690606690602085019061303c565b508015610aca576000805461ff0019169055505050565b600054610100900460ff1680612636575060005460ff16155b6126525760405162461bcd60e51b815260040161099490613701565b600054610100900460ff1615801561267d576000805460ff1961ff0019909116610100171660011790555b60fb805460ff191690558015610cdb576000805461ff001916905550565b6126a58383612b48565b6126b260008484846126ce565b610aca5760405162461bcd60e51b815260040161099490613685565b60006001600160a01b0384163b156127d057604051630a85bd0160e11b81526001600160a01b0385169063150b7a0290612712903390899088908890600401613635565b602060405180830381600087803b15801561272c57600080fd5b505af192505050801561275c575060408051601f3d908101601f19168201909252612759918101906133dd565b60015b6127b6573d80801561278a576040519150601f19603f3d011682016040523d82523d6000602084013e61278f565b606091505b5080516127ae5760405162461bcd60e51b815260040161099490613685565b805181602001fd5b6001600160e01b031916630a85bd0160e11b149050611802565b506001949350505050565b6000818152606760205260409020546060906001600160a01b031661285c5760405162461bcd60e51b815260206004820152603160248201527f45524337323155524953746f726167653a2055524920717565727920666f72206044820152703737b732bc34b9ba32b73a103a37b5b2b760791b6064820152608401610994565b600082815260c960205260408120805461287590613845565b80601f01602080910402602001604051908101604052809291908181526020018280546128a190613845565b80156128ee5780601f106128c3576101008083540402835291602001916128ee565b820191906000526020600020905b8154815290600101906020018083116128d157829003601f168201915b50505050509050600061290c60408051602081019091526000815290565b905080516000141561292057509050610888565b81511561295257808260405160200161293a929190613540565b60405160208183030381529060405292505050610888565b61180284612c96565b60006001600160e01b031982166380ac58cd60e01b148061298c57506001600160e01b03198216635b5e139f60e01b145b8061088557506301ffc9a760e01b6001600160e01b0319831614610885565b6001600160a01b038316612a0657612a0181609980546000838152609a60205260408120829055600182018355919091527f72a152ddfb8e864297c917af52ea6c1c68aead0fee1a62673fcc7e0c94979d000155565b612a29565b816001600160a01b0316836001600160a01b031614612a2957612a298382612d67565b6001600160a01b038216612a4557612a4081612e04565b610aca565b826001600160a01b0316826001600160a01b031614610aca57610aca8282612edd565b60608315612a775750816115da565b825115612a875782518084602001fd5b8160405162461bcd60e51b81526004016109949190613672565b6000612aac82610f70565b9050612aba816000846122d7565b612ac5600083611649565b6001600160a01b0381166000908152606860205260408120805460019290612aee9084906137eb565b909155505060008281526067602052604080822080546001600160a01b0319169055518391906001600160a01b038416907fddf252ad1be2c89b69c2b068fc378daa952ba7f163c4a11628f55a4df523b3ef908390a45050565b6001600160a01b038216612b9e5760405162461bcd60e51b815260206004820181905260248201527f4552433732313a206d696e7420746f20746865207a65726f20616464726573736044820152606401610994565b6000818152606760205260409020546001600160a01b031615612c035760405162461bcd60e51b815260206004820152601c60248201527f4552433732313a20746f6b656e20616c7265616479206d696e746564000000006044820152606401610994565b612c0f600083836122d7565b6001600160a01b0382166000908152606860205260408120805460019290612c389084906137a0565b909155505060008181526067602052604080822080546001600160a01b0319166001600160a01b03861690811790915590518392907fddf252ad1be2c89b69c2b068fc378daa952ba7f163c4a11628f55a4df523b3ef908290a45050565b6000818152606760205260409020546060906001600160a01b0316612d155760405162461bcd60e51b815260206004820152602f60248201527f4552433732314d657461646174613a2055524920717565727920666f72206e6f60448201526e3732bc34b9ba32b73a103a37b5b2b760891b6064820152608401610994565b6000612d2c60408051602081019091526000815290565b90506000815111612d4c57604051806020016040528060008152506115da565b80612d5684612f21565b6040516020016114cb929190613540565b60006001612d7484611059565b612d7e91906137eb565b600083815260986020526040902054909150808214612dd1576001600160a01b03841660009081526097602090815260408083208584528252808320548484528184208190558352609890915290208190555b5060009182526098602090815260408084208490556001600160a01b039094168352609781528383209183525290812055565b609954600090612e16906001906137eb565b6000838152609a602052604081205460998054939450909284908110612e4c57634e487b7160e01b600052603260045260246000fd5b906000526020600020015490508060998381548110612e7b57634e487b7160e01b600052603260045260246000fd5b6000918252602080832090910192909255828152609a90915260408082208490558582528120556099805480612ec157634e487b7160e01b600052603160045260246000fd5b6001900381819060005260206000200160009055905550505050565b6000612ee883611059565b6001600160a01b039093166000908152609760209081526040808320868452825280832085905593825260989052919091209190915550565b606081612f4657506040805180820190915260018152600360fc1b6020820152610888565b8160005b8115612f705780612f5a81613880565b9150612f699050600a836137b8565b9150612f4a565b60008167ffffffffffffffff811115612f9957634e487b7160e01b600052604160045260246000fd5b6040519080825280601f01601f191660200182016040528015612fc3576020820181803683370190505b5090505b841561180257612fd86001836137eb565b9150612fe5600a8661389b565b612ff09060306137a0565b60f81b81838151811061301357634e487b7160e01b600052603260045260246000fd5b60200101906001600160f81b031916908160001a905350613035600a866137b8565b9450612fc7565b82805461304890613845565b90600052602060002090601f01602090048101928261306a57600085556130b0565b82601f1061308357805160ff19168380011785556130b0565b828001600101855582156130b0579182015b828111156130b0578251825591602001919060010190613095565b506130bc9291506130f8565b5090565b5080546130cc90613845565b6000825580601f106130de5750610cdb565b601f016020900490600052602060002090810190610cdb91905b5b808211156130bc57600081556001016130f9565b600067ffffffffffffffff80841115613128576131286138db565b604051601f8501601f19908116603f01168101908282118183101715613150576131506138db565b8160405280935085815286868601111561316957600080fd5b858560208301376000602087830101525050509392505050565b80356001600160a01b038116811461088857600080fd5b600082601f8301126131aa578081fd5b6115da8383356020850161310d565b6000602082840312156131ca578081fd5b6115da82613183565b600080604083850312156131e5578081fd5b6131ee83613183565b91506131fc60208401613183565b90509250929050565b600080600060608486031215613219578081fd5b61322284613183565b925061323060208501613183565b9150604084013590509250925092565b60008060008060808587031215613255578081fd5b61325e85613183565b935061326c60208601613183565b925060408501359150606085013567ffffffffffffffff81111561328e578182fd5b61329a8782880161319a565b91505092959194509250565b600080604083850312156132b8578182fd5b6132c183613183565b9150602083013580151581146132d5578182fd5b809150509250929050565b600080604083850312156132f2578182fd5b6132fb83613183565b9150602083013567ffffffffffffffff811115613316578182fd5b6133228582860161319a565b9150509250929050565b6000806040838503121561333e578182fd5b61334783613183565b946020939093013593505050565b600080600060608486031215613369578283fd5b61337284613183565b95602085013595506040909401359392505050565b600060208284031215613398578081fd5b5035919050565b600080604083850312156133b1578182fd5b823591506131fc60208401613183565b6000602082840312156133d2578081fd5b81356115da816138f1565b6000602082840312156133ee578081fd5b81516115da816138f1565b60006020828403121561340a578081fd5b813567ffffffffffffffff811115613420578182fd5b8201601f81018413613430578182fd5b6118028482356020840161310d565b60008060408385031215613451578182fd5b50508035926020909101359150565b60008151808452613478816020860160208601613802565b601f01601f19169290920160200192915050565b8054600090600281046001808316806134a657607f831692505b60208084108214156134c657634e487b7160e01b86526022600452602486fd5b8180156134da57600181146134eb57613518565b60ff19861689528489019650613518565b60008881526020902060005b868110156135105781548b8201529085019083016134f7565b505084890196505b50505050505092915050565b60008251613536818460208701613802565b9190910192915050565b60008351613552818460208801613802565b835190830190613566818360208801613802565b01949350505050565b600061357b828561348c565b8351613566818360208801613802565b6000613597828561348c565b83516135a7818360208801613802565b64173539b7b760d91b9101908152600501949350505050565b60007f416363657373436f6e74726f6c3a206163636f756e7420000000000000000000825283516135f8816017850160208801613802565b7001034b99036b4b9b9b4b733903937b6329607d1b6017918401918201528351613629816028840160208801613802565b01602801949350505050565b6001600160a01b038581168252841660208201526040810183905260806060820181905260009061366890830184613460565b9695505050505050565b6000602082526115da6020830184613460565b60208082526032908201527f4552433732313a207472616e7366657220746f206e6f6e20455243373231526560408201527131b2b4bb32b91034b6b83632b6b2b73a32b960711b606082015260800190565b60208082526010908201526f14185d5cd8589b194e881c185d5cd95960821b604082015260600190565b6020808252602e908201527f496e697469616c697a61626c653a20636f6e747261637420697320616c72656160408201526d191e481a5b9a5d1a585b1a5e995960921b606082015260800190565b60208082526031908201527f4552433732313a207472616e736665722063616c6c6572206973206e6f74206f6040820152701ddb995c881b9bdc88185c1c1c9bdd9959607a1b606082015260800190565b600082198211156137b3576137b36138af565b500190565b6000826137c7576137c76138c5565b500490565b60008160001904831182151516156137e6576137e66138af565b500290565b6000828210156137fd576137fd6138af565b500390565b60005b8381101561381d578181015183820152602001613805565b8381111561148a5750506000910152565b60008161383d5761383d6138af565b506000190190565b60028104600182168061385957607f821691505b6020821081141561387a57634e487b7160e01b600052602260045260246000fd5b50919050565b6000600019821415613894576138946138af565b5060010190565b6000826138aa576138aa6138c5565b500690565b634e487b7160e01b600052601160045260246000fd5b634e487b7160e01b600052601260045260246000fd5b634e487b7160e01b600052604160045260246000fd5b6001600160e01b031981168114610cdb57600080fdfe65d7a28e3265b37a6474929f336521b332c1681b933f6cb9f3376673440d862a416464726573733a206c6f772d6c6576656c2064656c65676174652063616c6c206661696c65649f2df0fed2c77648de5860a4cc508cd0818c85b8b8a1ab4ceeef8d981c8956a668747470733a2f2f676174657761792e70696e6174612e636c6f75642f697066732f516d50434573373263424b3445747541595a764573564a4d43455863734a65555579356a6f6353447159557a4e582fa26469706673582212206c2f304877d83573a6f6e17c4d0ce80c382c6187d3bad65d297731f6ea6dd08064736f6c63430008020033",
  "linkReferences": {},
  "deployedLinkReferences": {}
}