{
  "_format": "hh-sol-artifact-1",
  "contractName": "MillionairesMiningClubCoin",
  "sourceName": "contracts/MillionairesMiningClubCoin.sol",
  "abi": [
    {
      "anonymous": false,
      "inputs": [
        {
          "indexed": false,
          "internalType": "address",
          "name": "previousAdmin",
          "type": "address"
        },
        {
          "indexed": false,
          "internalType": "address",
          "name": "newAdmin",
          "type": "address"
        }
      ],
      "name": "AdminChanged",
      "type": "event"
    },
    {
      "anonymous": false,
      "inputs": [
        {
          "indexed": true,
          "internalType": "address",
          "name": "owner",
          "type": "address"
        },
        {
          "indexed": true,
          "internalType": "address",
          "name": "spender",
          "type": "address"
        },
        {
          "indexed": false,
          "internalType": "uint256",
          "name": "value",
          "type": "uint256"
        }
      ],
      "name": "Approval",
      "type": "event"
    },
    {
      "anonymous": false,
      "inputs": [
        {
          "indexed": true,
          "internalType": "address",
          "name": "beacon",
          "type": "address"
        }
      ],
      "name": "BeaconUpgraded",
      "type": "event"
    },
    {
      "anonymous": false,
      "inputs": [
        {
          "indexed": true,
          "internalType": "address",
          "name": "delegator",
          "type": "address"
        },
        {
          "indexed": true,
          "internalType": "address",
          "name": "fromDelegate",
          "type": "address"
        },
        {
          "indexed": true,
          "internalType": "address",
          "name": "toDelegate",
          "type": "address"
        }
      ],
      "name": "DelegateChanged",
      "type": "event"
    },
    {
      "anonymous": false,
      "inputs": [
        {
          "indexed": true,
          "internalType": "address",
          "name": "delegate",
          "type": "address"
        },
        {
          "indexed": false,
          "internalType": "uint256",
          "name": "previousBalance",
          "type": "uint256"
        },
        {
          "indexed": false,
          "internalType": "uint256",
          "name": "newBalance",
          "type": "uint256"
        }
      ],
      "name": "DelegateVotesChanged",
      "type": "event"
    },
    {
      "anonymous": false,
      "inputs": [
        {
          "indexed": false,
          "internalType": "address",
          "name": "account",
          "type": "address"
        }
      ],
      "name": "Paused",
      "type": "event"
    },
    {
      "anonymous": false,
      "inputs": [
        {
          "indexed": true,
          "internalType": "bytes32",
          "name": "role",
          "type": "bytes32"
        },
        {
          "indexed": true,
          "internalType": "bytes32",
          "name": "previousAdminRole",
          "type": "bytes32"
        },
        {
          "indexed": true,
          "internalType": "bytes32",
          "name": "newAdminRole",
          "type": "bytes32"
        }
      ],
      "name": "RoleAdminChanged",
      "type": "event"
    },
    {
      "anonymous": false,
      "inputs": [
        {
          "indexed": true,
          "internalType": "bytes32",
          "name": "role",
          "type": "bytes32"
        },
        {
          "indexed": true,
          "internalType": "address",
          "name": "account",
          "type": "address"
        },
        {
          "indexed": true,
          "internalType": "address",
          "name": "sender",
          "type": "address"
        }
      ],
      "name": "RoleGranted",
      "type": "event"
    },
    {
      "anonymous": false,
      "inputs": [
        {
          "indexed": true,
          "internalType": "bytes32",
          "name": "role",
          "type": "bytes32"
        },
        {
          "indexed": true,
          "internalType": "address",
          "name": "account",
          "type": "address"
        },
        {
          "indexed": true,
          "internalType": "address",
          "name": "sender",
          "type": "address"
        }
      ],
      "name": "RoleRevoked",
      "type": "event"
    },
    {
      "anonymous": false,
      "inputs": [
        {
          "indexed": true,
          "internalType": "address",
          "name": "from",
          "type": "address"
        },
        {
          "indexed": true,
          "internalType": "address",
          "name": "to",
          "type": "address"
        },
        {
          "indexed": false,
          "internalType": "uint256",
          "name": "value",
          "type": "uint256"
        }
      ],
      "name": "Transfer",
      "type": "event"
    },
    {
      "anonymous": false,
      "inputs": [
        {
          "indexed": false,
          "internalType": "address",
          "name": "account",
          "type": "address"
        }
      ],
      "name": "Unpaused",
      "type": "event"
    },
    {
      "anonymous": false,
      "inputs": [
        {
          "indexed": true,
          "internalType": "address",
          "name": "implementation",
          "type": "address"
        }
      ],
      "name": "Upgraded",
      "type": "event"
    },
    {
      "inputs": [],
      "name": "DEFAULT_ADMIN_ROLE",
      "outputs": [
        {
          "internalType": "bytes32",
          "name": "",
          "type": "bytes32"
        }
      ],
      "stateMutability": "view",
      "type": "function"
    },
    {
      "inputs": [],
      "name": "DOMAIN_SEPARATOR",
      "outputs": [
        {
          "internalType": "bytes32",
          "name": "",
          "type": "bytes32"
        }
      ],
      "stateMutability": "view",
      "type": "function"
    },
    {
      "inputs": [],
      "name": "MINTER_ROLE",
      "outputs": [
        {
          "internalType": "bytes32",
          "name": "",
          "type": "bytes32"
        }
      ],
      "stateMutability": "view",
      "type": "function"
    },
    {
      "inputs": [],
      "name": "PAUSER_ROLE",
      "outputs": [
        {
          "internalType": "bytes32",
          "name": "",
          "type": "bytes32"
        }
      ],
      "stateMutability": "view",
      "type": "function"
    },
    {
      "inputs": [],
      "name": "UPGRADER_ROLE",
      "outputs": [
        {
          "internalType": "bytes32",
          "name": "",
          "type": "bytes32"
        }
      ],
      "stateMutability": "view",
      "type": "function"
    },
    {
      "inputs": [
        {
          "internalType": "address",
          "name": "owner",
          "type": "address"
        },
        {
          "internalType": "address",
          "name": "spender",
          "type": "address"
        }
      ],
      "name": "allowance",
      "outputs": [
        {
          "internalType": "uint256",
          "name": "",
          "type": "uint256"
        }
      ],
      "stateMutability": "view",
      "type": "function"
    },
    {
      "inputs": [
        {
          "internalType": "address",
          "name": "spender",
          "type": "address"
        },
        {
          "internalType": "uint256",
          "name": "amount",
          "type": "uint256"
        }
      ],
      "name": "approve",
      "outputs": [
        {
          "internalType": "bool",
          "name": "",
          "type": "bool"
        }
      ],
      "stateMutability": "nonpayable",
      "type": "function"
    },
    {
      "inputs": [
        {
          "internalType": "address",
          "name": "account",
          "type": "address"
        }
      ],
      "name": "balanceOf",
      "outputs": [
        {
          "internalType": "uint256",
          "name": "",
          "type": "uint256"
        }
      ],
      "stateMutability": "view",
      "type": "function"
    },
    {
      "inputs": [
        {
          "internalType": "uint256",
          "name": "amount",
          "type": "uint256"
        }
      ],
      "name": "burn",
      "outputs": [],
      "stateMutability": "nonpayable",
      "type": "function"
    },
    {
      "inputs": [
        {
          "internalType": "address",
          "name": "account",
          "type": "address"
        },
        {
          "internalType": "uint256",
          "name": "amount",
          "type": "uint256"
        }
      ],
      "name": "burnFrom",
      "outputs": [],
      "stateMutability": "nonpayable",
      "type": "function"
    },
    {
      "inputs": [
        {
          "internalType": "address",
          "name": "account",
          "type": "address"
        },
        {
          "internalType": "uint32",
          "name": "pos",
          "type": "uint32"
        }
      ],
      "name": "checkpoints",
      "outputs": [
        {
          "components": [
            {
              "internalType": "uint32",
              "name": "fromBlock",
              "type": "uint32"
            },
            {
              "internalType": "uint224",
              "name": "votes",
              "type": "uint224"
            }
          ],
          "internalType": "struct ERC20VotesUpgradeable.Checkpoint",
          "name": "",
          "type": "tuple"
        }
      ],
      "stateMutability": "view",
      "type": "function"
    },
    {
      "inputs": [],
      "name": "decimals",
      "outputs": [
        {
          "internalType": "uint8",
          "name": "",
          "type": "uint8"
        }
      ],
      "stateMutability": "view",
      "type": "function"
    },
    {
      "inputs": [
        {
          "internalType": "address",
          "name": "spender",
          "type": "address"
        },
        {
          "internalType": "uint256",
          "name": "subtractedValue",
          "type": "uint256"
        }
      ],
      "name": "decreaseAllowance",
      "outputs": [
        {
          "internalType": "bool",
          "name": "",
          "type": "bool"
        }
      ],
      "stateMutability": "nonpayable",
      "type": "function"
    },
    {
      "inputs": [
        {
          "internalType": "address",
          "name": "delegatee",
          "type": "address"
        }
      ],
      "name": "delegate",
      "outputs": [],
      "stateMutability": "nonpayable",
      "type": "function"
    },
    {
      "inputs": [
        {
          "internalType": "address",
          "name": "delegatee",
          "type": "address"
        },
        {
          "internalType": "uint256",
          "name": "nonce",
          "type": "uint256"
        },
        {
          "internalType": "uint256",
          "name": "expiry",
          "type": "uint256"
        },
        {
          "internalType": "uint8",
          "name": "v",
          "type": "uint8"
        },
        {
          "internalType": "bytes32",
          "name": "r",
          "type": "bytes32"
        },
        {
          "internalType": "bytes32",
          "name": "s",
          "type": "bytes32"
        }
      ],
      "name": "delegateBySig",
      "outputs": [],
      "stateMutability": "nonpayable",
      "type": "function"
    },
    {
      "inputs": [
        {
          "internalType": "address",
          "name": "account",
          "type": "address"
        }
      ],
      "name": "delegates",
      "outputs": [
        {
          "internalType": "address",
          "name": "",
          "type": "address"
        }
      ],
      "stateMutability": "view",
      "type": "function"
    },
    {
      "inputs": [
        {
          "internalType": "uint256",
          "name": "blockNumber",
          "type": "uint256"
        }
      ],
      "name": "getPastTotalSupply",
      "outputs": [
        {
          "internalType": "uint256",
          "name": "",
          "type": "uint256"
        }
      ],
      "stateMutability": "view",
      "type": "function"
    },
    {
      "inputs": [
        {
          "internalType": "address",
          "name": "account",
          "type": "address"
        },
        {
          "internalType": "uint256",
          "name": "blockNumber",
          "type": "uint256"
        }
      ],
      "name": "getPastVotes",
      "outputs": [
        {
          "internalType": "uint256",
          "name": "",
          "type": "uint256"
        }
      ],
      "stateMutability": "view",
      "type": "function"
    },
    {
      "inputs": [
        {
          "internalType": "bytes32",
          "name": "role",
          "type": "bytes32"
        }
      ],
      "name": "getRoleAdmin",
      "outputs": [
        {
          "internalType": "bytes32",
          "name": "",
          "type": "bytes32"
        }
      ],
      "stateMutability": "view",
      "type": "function"
    },
    {
      "inputs": [
        {
          "internalType": "address",
          "name": "account",
          "type": "address"
        }
      ],
      "name": "getVotes",
      "outputs": [
        {
          "internalType": "uint256",
          "name": "",
          "type": "uint256"
        }
      ],
      "stateMutability": "view",
      "type": "function"
    },
    {
      "inputs": [
        {
          "internalType": "bytes32",
          "name": "role",
          "type": "bytes32"
        },
        {
          "internalType": "address",
          "name": "account",
          "type": "address"
        }
      ],
      "name": "grantRole",
      "outputs": [],
      "stateMutability": "nonpayable",
      "type": "function"
    },
    {
      "inputs": [
        {
          "internalType": "bytes32",
          "name": "role",
          "type": "bytes32"
        },
        {
          "internalType": "address",
          "name": "account",
          "type": "address"
        }
      ],
      "name": "hasRole",
      "outputs": [
        {
          "internalType": "bool",
          "name": "",
          "type": "bool"
        }
      ],
      "stateMutability": "view",
      "type": "function"
    },
    {
      "inputs": [
        {
          "internalType": "address",
          "name": "spender",
          "type": "address"
        },
        {
          "internalType": "uint256",
          "name": "addedValue",
          "type": "uint256"
        }
      ],
      "name": "increaseAllowance",
      "outputs": [
        {
          "internalType": "bool",
          "name": "",
          "type": "bool"
        }
      ],
      "stateMutability": "nonpayable",
      "type": "function"
    },
    {
      "inputs": [],
      "name": "initialize",
      "outputs": [],
      "stateMutability": "nonpayable",
      "type": "function"
    },
    {
      "inputs": [
        {
          "internalType": "address",
          "name": "to",
          "type": "address"
        },
        {
          "internalType": "uint256",
          "name": "amount",
          "type": "uint256"
        }
      ],
      "name": "mint",
      "outputs": [],
      "stateMutability": "nonpayable",
      "type": "function"
    },
    {
      "inputs": [],
      "name": "name",
      "outputs": [
        {
          "internalType": "string",
          "name": "",
          "type": "string"
        }
      ],
      "stateMutability": "view",
      "type": "function"
    },
    {
      "inputs": [
        {
          "internalType": "address",
          "name": "owner",
          "type": "address"
        }
      ],
      "name": "nonces",
      "outputs": [
        {
          "internalType": "uint256",
          "name": "",
          "type": "uint256"
        }
      ],
      "stateMutability": "view",
      "type": "function"
    },
    {
      "inputs": [
        {
          "internalType": "address",
          "name": "account",
          "type": "address"
        }
      ],
      "name": "numCheckpoints",
      "outputs": [
        {
          "internalType": "uint32",
          "name": "",
          "type": "uint32"
        }
      ],
      "stateMutability": "view",
      "type": "function"
    },
    {
      "inputs": [],
      "name": "pause",
      "outputs": [],
      "stateMutability": "nonpayable",
      "type": "function"
    },
    {
      "inputs": [],
      "name": "paused",
      "outputs": [
        {
          "internalType": "bool",
          "name": "",
          "type": "bool"
        }
      ],
      "stateMutability": "view",
      "type": "function"
    },
    {
      "inputs": [
        {
          "internalType": "address",
          "name": "owner",
          "type": "address"
        },
        {
          "internalType": "address",
          "name": "spender",
          "type": "address"
        },
        {
          "internalType": "uint256",
          "name": "value",
          "type": "uint256"
        },
        {
          "internalType": "uint256",
          "name": "deadline",
          "type": "uint256"
        },
        {
          "internalType": "uint8",
          "name": "v",
          "type": "uint8"
        },
        {
          "internalType": "bytes32",
          "name": "r",
          "type": "bytes32"
        },
        {
          "internalType": "bytes32",
          "name": "s",
          "type": "bytes32"
        }
      ],
      "name": "permit",
      "outputs": [],
      "stateMutability": "nonpayable",
      "type": "function"
    },
    {
      "inputs": [
        {
          "internalType": "bytes32",
          "name": "role",
          "type": "bytes32"
        },
        {
          "internalType": "address",
          "name": "account",
          "type": "address"
        }
      ],
      "name": "renounceRole",
      "outputs": [],
      "stateMutability": "nonpayable",
      "type": "function"
    },
    {
      "inputs": [
        {
          "internalType": "bytes32",
          "name": "role",
          "type": "bytes32"
        },
        {
          "internalType": "address",
          "name": "account",
          "type": "address"
        }
      ],
      "name": "revokeRole",
      "outputs": [],
      "stateMutability": "nonpayable",
      "type": "function"
    },
    {
      "inputs": [
        {
          "internalType": "bytes4",
          "name": "interfaceId",
          "type": "bytes4"
        }
      ],
      "name": "supportsInterface",
      "outputs": [
        {
          "internalType": "bool",
          "name": "",
          "type": "bool"
        }
      ],
      "stateMutability": "view",
      "type": "function"
    },
    {
      "inputs": [],
      "name": "symbol",
      "outputs": [
        {
          "internalType": "string",
          "name": "",
          "type": "string"
        }
      ],
      "stateMutability": "view",
      "type": "function"
    },
    {
      "inputs": [],
      "name": "totalSupply",
      "outputs": [
        {
          "internalType": "uint256",
          "name": "",
          "type": "uint256"
        }
      ],
      "stateMutability": "view",
      "type": "function"
    },
    {
      "inputs": [
        {
          "internalType": "address",
          "name": "recipient",
          "type": "address"
        },
        {
          "internalType": "uint256",
          "name": "amount",
          "type": "uint256"
        }
      ],
      "name": "transfer",
      "outputs": [
        {
          "internalType": "bool",
          "name": "",
          "type": "bool"
        }
      ],
      "stateMutability": "nonpayable",
      "type": "function"
    },
    {
      "inputs": [
        {
          "internalType": "address",
          "name": "sender",
          "type": "address"
        },
        {
          "internalType": "address",
          "name": "recipient",
          "type": "address"
        },
        {
          "internalType": "uint256",
          "name": "amount",
          "type": "uint256"
        }
      ],
      "name": "transferFrom",
      "outputs": [
        {
          "internalType": "bool",
          "name": "",
          "type": "bool"
        }
      ],
      "stateMutability": "nonpayable",
      "type": "function"
    },
    {
      "inputs": [],
      "name": "unpause",
      "outputs": [],
      "stateMutability": "nonpayable",
      "type": "function"
    },
    {
      "inputs": [
        {
          "internalType": "address",
          "name": "newImplementation",
          "type": "address"
        }
      ],
      "name": "upgradeTo",
      "outputs": [],
      "stateMutability": "nonpayable",
      "type": "function"
    },
    {
      "inputs": [
        {
          "internalType": "address",
          "name": "newImplementation",
          "type": "address"
        },
        {
          "internalType": "bytes",
          "name": "data",
          "type": "bytes"
        }
      ],
      "name": "upgradeToAndCall",
      "outputs": [],
      "stateMutability": "payable",
      "type": "function"
    }
  ],
  "bytecode": "0x608060405234801561001057600080fd5b50613572806100206000396000f3fe6080604052600436106102465760003560e01c80636fcfff4511610139578063a217fddf116100b6578063d53913931161007a578063d5391393146106d5578063d547741f14610709578063dd62ed3e14610729578063e63ab1e91461076f578063f1127ed814610791578063f72c0d8b146107db57610246565b8063a217fddf14610640578063a457c2d714610655578063a9059cbb14610675578063c3cda52014610695578063d505accf146106b557610246565b80638456cb59116100fd5780638456cb59146105b65780638e539e8c146105cb57806391d14854146105eb57806395d89b411461060b5780639ab24eb01461062057610246565b80636fcfff45146104f657806370a082311461052b57806379cc6790146105615780637ecebe00146105815780638129fc1c146105a157610246565b80633659cfe6116101c757806342966c681161018b57806342966c68146104395780634f1ef28614610459578063587cde1e1461046c5780635c19a95c146104be5780635c975abb146104de57610246565b80633659cfe6146103a457806339509351146103c45780633a46b1a8146103e45780633f4ba83a1461040457806340c10f191461041957610246565b8063248a9ca31161020e578063248a9ca3146103015780632f2ff15d14610331578063313ce567146103535780633644e5151461036f57806336568abe1461038457610246565b806301ffc9a71461024b57806306fdde0314610280578063095ea7b3146102a257806318160ddd146102c257806323b872dd146102e1575b600080fd5b34801561025757600080fd5b5061026b61026636600461328b565b61080f565b60405190151581526020015b60405180910390f35b34801561028c57600080fd5b50610295610848565b6040516102779190613344565b3480156102ae57600080fd5b5061026b6102bd366004613193565b6108da565b3480156102ce57600080fd5b506035545b604051908152602001610277565b3480156102ed57600080fd5b5061026b6102fc366004613032565b6108f0565b34801561030d57600080fd5b506102d361031c366004613251565b600090815260fb602052604090206001015490565b34801561033d57600080fd5b5061035161034c366004613269565b6109a1565b005b34801561035f57600080fd5b5060405160128152602001610277565b34801561037b57600080fd5b506102d36109cd565b34801561039057600080fd5b5061035161039f366004613269565b6109dc565b3480156103b057600080fd5b506103516103bf366004612fe6565b610a5a565b3480156103d057600080fd5b5061026b6103df366004613193565b610a81565b3480156103f057600080fd5b506102d36103ff366004613193565b610abd565b34801561041057600080fd5b50610351610b31565b34801561042557600080fd5b50610351610434366004613193565b610b52565b34801561044557600080fd5b50610351610454366004613251565b610b87565b6103516104673660046130d6565b610b91565b34801561047857600080fd5b506104a6610487366004612fe6565b6001600160a01b03908116600090815261019460205260409020541690565b6040516001600160a01b039091168152602001610277565b3480156104ca57600080fd5b506103516104d9366004612fe6565b610ba6565b3480156104ea57600080fd5b5060975460ff1661026b565b34801561050257600080fd5b50610516610511366004612fe6565b610bb0565b60405163ffffffff9091168152602001610277565b34801561053757600080fd5b506102d3610546366004612fe6565b6001600160a01b031660009081526033602052604090205490565b34801561056d57600080fd5b5061035161057c366004613193565b610bd3565b34801561058d57600080fd5b506102d361059c366004612fe6565b610c54565b3480156105ad57600080fd5b50610351610c73565b3480156105c257600080fd5b50610351610e0e565b3480156105d757600080fd5b506102d36105e6366004613251565b610e2f565b3480156105f757600080fd5b5061026b610606366004613269565b610e8c565b34801561061757600080fd5b50610295610eb7565b34801561062c57600080fd5b506102d361063b366004612fe6565b610ec6565b34801561064c57600080fd5b506102d3600081565b34801561066157600080fd5b5061026b610670366004613193565b610f5d565b34801561068157600080fd5b5061026b610690366004613193565b610ff6565b3480156106a157600080fd5b506103516106b03660046131bc565b611003565b3480156106c157600080fd5b506103516106d036600461306d565b611139565b3480156106e157600080fd5b506102d37f9f2df0fed2c77648de5860a4cc508cd0818c85b8b8a1ab4ceeef8d981c8956a681565b34801561071557600080fd5b50610351610724366004613269565b611280565b34801561073557600080fd5b506102d3610744366004613000565b6001600160a01b03918216600090815260346020908152604080832093909416825291909152205490565b34801561077b57600080fd5b506102d36000805160206134f683398151915281565b34801561079d57600080fd5b506107b16107ac366004613213565b6112a6565b60408051825163ffffffff1681526020928301516001600160e01b03169281019290925201610277565b3480156107e757600080fd5b506102d37f189ab7a9244df0848122154315af71fe140f3db0fe014031783b0946b8c9d2e381565b60006001600160e01b03198216637965db0b60e01b148061084057506301ffc9a760e01b6001600160e01b03198316145b90505b919050565b6060603680546108579061346a565b80601f01602080910402602001604051908101604052809291908181526020018280546108839061346a565b80156108d05780601f106108a5576101008083540402835291602001916108d0565b820191906000526020600020905b8154815290600101906020018083116108b357829003601f168201915b5050505050905090565b60006108e7338484611339565b50600192915050565b60006108fd84848461145d565b6001600160a01b0384166000908152603460209081526040808320338452909152902054828110156109875760405162461bcd60e51b815260206004820152602860248201527f45524332303a207472616e7366657220616d6f756e74206578636565647320616044820152676c6c6f77616e636560c01b60648201526084015b60405180910390fd5b6109948533858403611339565b60019150505b9392505050565b600082815260fb60205260409020600101546109be81335b611642565b6109c883836116a6565b505050565b60006109d761172c565b905090565b6001600160a01b0381163314610a4c5760405162461bcd60e51b815260206004820152602f60248201527f416363657373436f6e74726f6c3a2063616e206f6e6c792072656e6f756e636560448201526e103937b632b9903337b91039b2b63360891b606482015260840161097e565b610a5682826117a9565b5050565b610a6381611810565b610a7e8160405180602001604052806000815250600061183b565b50565b3360008181526034602090815260408083206001600160a01b038716845290915281205490916108e7918590610ab89086906133c5565b611339565b6000438210610b0e5760405162461bcd60e51b815260206004820152601f60248201527f4552433230566f7465733a20626c6f636b206e6f7420796574206d696e656400604482015260640161097e565b6001600160a01b03831660009081526101956020526040902061099a90836119c3565b6000805160206134f6833981519152610b4a81336109b9565b610a7e611a9c565b7f9f2df0fed2c77648de5860a4cc508cd0818c85b8b8a1ab4ceeef8d981c8956a6610b7d81336109b9565b6109c88383611b2f565b610a7e3382611b39565b610b9a82611810565b610a568282600161183b565b610a7e3382611b43565b6001600160a01b0381166000908152610195602052604081205461084090611bbe565b6000610bdf8333610744565b905081811015610c3d5760405162461bcd60e51b8152602060048201526024808201527f45524332303a206275726e20616d6f756e74206578636565647320616c6c6f77604482015263616e636560e01b606482015260840161097e565b610c4a8333848403611339565b6109c88383611b39565b6001600160a01b03811660009081526101616020526040812054610840565b600054610100900460ff1680610c8c575060005460ff16155b610ca85760405162461bcd60e51b815260040161097e90613377565b600054610100900460ff16158015610cd3576000805460ff1961ff0019909116610100171660011790555b610d296040518060400160405280601981526020017826b4b63634b7b730b4b93293b99026b4b734b7339021b63ab160391b815250604051806040016040528060038152602001624d4d4360e81b815250611c27565b610d31611caf565b610d39611d1f565b610d41611d8f565b610d7b6040518060400160405280601981526020017826b4b63634b7b730b4b93293b99026b4b734b7339021b63ab160391b815250611df7565b610d83611caf565b610d8e600033611ea0565b610da66000805160206134f683398151915233611ea0565b610dd07f9f2df0fed2c77648de5860a4cc508cd0818c85b8b8a1ab4ceeef8d981c8956a633611ea0565b610dfa7f189ab7a9244df0848122154315af71fe140f3db0fe014031783b0946b8c9d2e333611ea0565b8015610a7e576000805461ff001916905550565b6000805160206134f6833981519152610e2781336109b9565b610a7e611eaa565b6000438210610e805760405162461bcd60e51b815260206004820152601f60248201527f4552433230566f7465733a20626c6f636b206e6f7420796574206d696e656400604482015260640161097e565b610840610196836119c3565b600091825260fb602090815260408084206001600160a01b0393909316845291905290205460ff1690565b6060603780546108579061346a565b6001600160a01b038116600090815261019560205260408120548015610f4a576001600160a01b038316600090815261019560205260409020610f0a600183613410565b81548110610f2857634e487b7160e01b600052603260045260246000fd5b60009182526020909120015464010000000090046001600160e01b0316610f4d565b60005b6001600160e01b03169392505050565b3360009081526034602090815260408083206001600160a01b038616845290915281205482811015610fdf5760405162461bcd60e51b815260206004820152602560248201527f45524332303a2064656372656173656420616c6c6f77616e63652062656c6f77604482015264207a65726f60d81b606482015260840161097e565b610fec3385858403611339565b5060019392505050565b60006108e733848461145d565b834211156110535760405162461bcd60e51b815260206004820152601d60248201527f4552433230566f7465733a207369676e61747572652065787069726564000000604482015260640161097e565b604080517fe48329057bfd03d55e49b547132e39cffd9c1820ad7b9d4c5307691425d15adf60208201526001600160a01b0388169181019190915260608101869052608081018590526000906110cd906110c59060a00160405160208183030381529060405280519060200120611f25565b858585611f73565b90506110d88161211c565b86146111265760405162461bcd60e51b815260206004820152601960248201527f4552433230566f7465733a20696e76616c6964206e6f6e636500000000000000604482015260640161097e565b6111308188611b43565b50505050505050565b834211156111895760405162461bcd60e51b815260206004820152601d60248201527f45524332305065726d69743a206578706972656420646561646c696e65000000604482015260640161097e565b60006101625488888861119b8c61211c565b6040805160208101969096526001600160a01b0394851690860152929091166060840152608083015260a082015260c0810186905260e00160405160208183030381529060405280519060200120905060006111f682611f25565b9050600061120682878787611f73565b9050896001600160a01b0316816001600160a01b0316146112695760405162461bcd60e51b815260206004820152601e60248201527f45524332305065726d69743a20696e76616c6964207369676e61747572650000604482015260640161097e565b6112748a8a8a611339565b50505050505050505050565b600082815260fb602052604090206001015461129c81336109b9565b6109c883836117a9565b60408051808201909152600080825260208201526001600160a01b038316600090815261019560205260409020805463ffffffff84169081106112f957634e487b7160e01b600052603260045260246000fd5b60009182526020918290206040805180820190915291015463ffffffff8116825264010000000090046001600160e01b0316918101919091529392505050565b6001600160a01b03831661139b5760405162461bcd60e51b8152602060048201526024808201527f45524332303a20617070726f76652066726f6d20746865207a65726f206164646044820152637265737360e01b606482015260840161097e565b6001600160a01b0382166113fc5760405162461bcd60e51b815260206004820152602260248201527f45524332303a20617070726f766520746f20746865207a65726f206164647265604482015261737360f01b606482015260840161097e565b6001600160a01b0383811660008181526034602090815260408083209487168084529482529182902085905590518481527f8c5be1e5ebec7d5bd14f71427d1e84f3dd0314c0f7b2291e5b200ac8c7c3b925910160405180910390a3505050565b6001600160a01b0383166114c15760405162461bcd60e51b815260206004820152602560248201527f45524332303a207472616e736665722066726f6d20746865207a65726f206164604482015264647265737360d81b606482015260840161097e565b6001600160a01b0382166115235760405162461bcd60e51b815260206004820152602360248201527f45524332303a207472616e7366657220746f20746865207a65726f206164647260448201526265737360e81b606482015260840161097e565b61152e838383612145565b6001600160a01b038316600090815260336020526040902054818110156115a65760405162461bcd60e51b815260206004820152602660248201527f45524332303a207472616e7366657220616d6f756e7420657863656564732062604482015265616c616e636560d01b606482015260840161097e565b6001600160a01b038085166000908152603360205260408082208585039055918516815290812080548492906115dd9084906133c5565b92505081905550826001600160a01b0316846001600160a01b03167fddf252ad1be2c89b69c2b068fc378daa952ba7f163c4a11628f55a4df523b3ef8460405161162991815260200190565b60405180910390a361163c848484612190565b50505050565b61164c8282610e8c565b610a5657611664816001600160a01b0316601461219b565b61166f83602061219b565b6040516020016116809291906132cf565b60408051601f198184030181529082905262461bcd60e51b825261097e91600401613344565b6116b08282610e8c565b610a5657600082815260fb602090815260408083206001600160a01b03851684529091529020805460ff191660011790556116e83390565b6001600160a01b0316816001600160a01b0316837f2f8788117e7eff1d82e926ec794901d17c78024a50270940304540a733656f0d60405160405180910390a45050565b60006109d77f8b73c3c69bb8fe3d512ecc4cf759cc79239f7b179b0ffacaa9a75d522b39400f61175c61012d5490565b61012e546040805160208101859052908101839052606081018290524660808201523060a082015260009060c0016040516020818303038152906040528051906020012090509392505050565b6117b38282610e8c565b15610a5657600082815260fb602090815260408083206001600160a01b0385168085529252808320805460ff1916905551339285917ff6391f5c32d9c69d2a47ea670b442974b53935d1edc7fd64eb21e047a839171b9190a45050565b7f189ab7a9244df0848122154315af71fe140f3db0fe014031783b0946b8c9d2e3610a5681336109b9565b600061186e7f360894a13ba1a3210667c828492db98dca3e2076cc3735a920a3ca505d382bbc546001600160a01b031690565b90506118798461237d565b6000835111806118865750815b15611897576118958484612422565b505b7f4910fdfa16fed3260ed0e7147f7cc6da11a60208b5b9406d12a635614ffd9143805460ff166119bc57805460ff191660011781556040516001600160a01b038316602482015261191690869060440160408051601f198184030181529190526020810180516001600160e01b0316631b2ce7f360e11b179052612422565b50805460ff191681557f360894a13ba1a3210667c828492db98dca3e2076cc3735a920a3ca505d382bbc546001600160a01b038381169116146119b35760405162461bcd60e51b815260206004820152602f60248201527f45524331393637557067726164653a207570677261646520627265616b73206660448201526e75727468657220757067726164657360881b606482015260840161097e565b6119bc85612504565b5050505050565b8154600090815b81811015611a355760006119de8284612544565b905084868281548110611a0157634e487b7160e01b600052603260045260246000fd5b60009182526020909120015463ffffffff161115611a2157809250611a2f565b611a2c8160016133c5565b91505b506119ca565b8115611a875784611a47600184613410565b81548110611a6557634e487b7160e01b600052603260045260246000fd5b60009182526020909120015464010000000090046001600160e01b0316611a8a565b60005b6001600160e01b031695945050505050565b60975460ff16611ae55760405162461bcd60e51b815260206004820152601460248201527314185d5cd8589b194e881b9bdd081c185d5cd95960621b604482015260640161097e565b6097805460ff191690557f5db9ee0a495bf2e6ff9c91a7834c1ba4fdd244a5e8aa4e537bd38aeae4b073aa335b6040516001600160a01b03909116815260200160405180910390a1565b610a56828261259b565b610a568282612626565b6001600160a01b0382811660008181526101946020818152604080842080546033845282862054949093528787166001600160a01b03198416811790915590519190951694919391928592917f3134e8a2e6d97e929a7e54011ea5485d7d196dd5f0ba4d4ef95803e8e3fc257f9190a461163c82848361263f565b600063ffffffff821115611c235760405162461bcd60e51b815260206004820152602660248201527f53616665436173743a2076616c756520646f65736e27742066697420696e203360448201526532206269747360d01b606482015260840161097e565b5090565b600054610100900460ff1680611c40575060005460ff16155b611c5c5760405162461bcd60e51b815260040161097e90613377565b600054610100900460ff16158015611c87576000805460ff1961ff0019909116610100171660011790555b611c8f61277e565b611c9983836127f1565b80156109c8576000805461ff0019169055505050565b600054610100900460ff1680611cc8575060005460ff16155b611ce45760405162461bcd60e51b815260040161097e90613377565b600054610100900460ff16158015611d0f576000805460ff1961ff0019909116610100171660011790555b611d1761277e565b610dfa61277e565b600054610100900460ff1680611d38575060005460ff16155b611d545760405162461bcd60e51b815260040161097e90613377565b600054610100900460ff16158015611d7f576000805460ff1961ff0019909116610100171660011790555b611d8761277e565b610dfa61288f565b600054610100900460ff1680611da8575060005460ff16155b611dc45760405162461bcd60e51b815260040161097e90613377565b600054610100900460ff16158015611def576000805460ff1961ff0019909116610100171660011790555b611d0f61277e565b600054610100900460ff1680611e10575060005460ff16155b611e2c5760405162461bcd60e51b815260040161097e90613377565b600054610100900460ff16158015611e57576000805460ff1961ff0019909116610100171660011790555b611e5f61277e565b611e8282604051806040016040528060018152602001603160f81b81525061290d565b611e8b826129a2565b8015610a56576000805461ff00191690555050565b610a5682826116a6565b60975460ff1615611ef05760405162461bcd60e51b815260206004820152601060248201526f14185d5cd8589b194e881c185d5cd95960821b604482015260640161097e565b6097805460ff191660011790557f62e78cea01bee320cd4e420270b5ea74000d11b0c9f74754ebdbfc544b05a258611b123390565b6000610840611f3261172c565b8360405161190160f01b6020820152602281018390526042810182905260009060620160405160208183030381529060405280519060200120905092915050565b60007f7fffffffffffffffffffffffffffffff5d576e7357a4501ddfe92f46681b20a0821115611ff05760405162461bcd60e51b815260206004820152602260248201527f45434453413a20696e76616c6964207369676e6174757265202773272076616c604482015261756560f01b606482015260840161097e565b8360ff16601b148061200557508360ff16601c145b61205c5760405162461bcd60e51b815260206004820152602260248201527f45434453413a20696e76616c6964207369676e6174757265202776272076616c604482015261756560f01b606482015260840161097e565b6040805160008082526020820180845288905260ff871692820192909252606081018590526080810184905260019060a0016020604051602081039080840390855afa1580156120b0573d6000803e3d6000fd5b5050604051601f1901519150506001600160a01b0381166121135760405162461bcd60e51b815260206004820152601860248201527f45434453413a20696e76616c6964207369676e61747572650000000000000000604482015260640161097e565b95945050505050565b6001600160a01b0381166000908152610161602052604090208054600181018255905b50919050565b60975460ff161561218b5760405162461bcd60e51b815260206004820152601060248201526f14185d5cd8589b194e881c185d5cd95960821b604482015260640161097e565b6109c8565b6109c8838383612a3c565b606060006121aa8360026133f1565b6121b59060026133c5565b67ffffffffffffffff8111156121db57634e487b7160e01b600052604160045260246000fd5b6040519080825280601f01601f191660200182016040528015612205576020820181803683370190505b509050600360fc1b8160008151811061222e57634e487b7160e01b600052603260045260246000fd5b60200101906001600160f81b031916908160001a905350600f60fb1b8160018151811061226b57634e487b7160e01b600052603260045260246000fd5b60200101906001600160f81b031916908160001a905350600061228f8460026133f1565b61229a9060016133c5565b90505b600181111561232e576f181899199a1a9b1b9c1cb0b131b232b360811b85600f16601081106122dc57634e487b7160e01b600052603260045260246000fd5b1a60f81b82828151811061230057634e487b7160e01b600052603260045260246000fd5b60200101906001600160f81b031916908160001a90535060049490941c9361232781613453565b905061229d565b50831561099a5760405162461bcd60e51b815260206004820181905260248201527f537472696e67733a20686578206c656e67746820696e73756666696369656e74604482015260640161097e565b803b6123e15760405162461bcd60e51b815260206004820152602d60248201527f455243313936373a206e657720696d706c656d656e746174696f6e206973206e60448201526c1bdd08184818dbdb9d1c9858dd609a1b606482015260840161097e565b7f360894a13ba1a3210667c828492db98dca3e2076cc3735a920a3ca505d382bbc80546001600160a01b0319166001600160a01b0392909216919091179055565b6060823b6124815760405162461bcd60e51b815260206004820152602660248201527f416464726573733a2064656c65676174652063616c6c20746f206e6f6e2d636f6044820152651b9d1c9858dd60d21b606482015260840161097e565b600080846001600160a01b03168460405161249c91906132b3565b600060405180830381855af49150503d80600081146124d7576040519150601f19603f3d011682016040523d82523d6000602084013e6124dc565b606091505b5091509150612113828260405180606001604052806027815260200161351660279139612a6f565b61250d8161237d565b6040516001600160a01b038216907fbc7cd75a20ee27fd9adebab32041f755214dbc6bffa90cc0225b39da2e5c2d3b90600090a250565b60006002612552818461349f565b61255d60028661349f565b61256791906133c5565b61257191906133dd565b61257c6002846133dd565b6125876002866133dd565b61259191906133c5565b61099a91906133c5565b6125a58282612aa8565b6035546001600160e01b0310156126175760405162461bcd60e51b815260206004820152603060248201527f4552433230566f7465733a20746f74616c20737570706c79207269736b73206f60448201526f766572666c6f77696e6720766f74657360801b606482015260840161097e565b61163c610196612b9b83612ba7565b6126308282612d58565b61163c610196612eb983612ba7565b816001600160a01b0316836001600160a01b0316141580156126615750600081115b156109c8576001600160a01b038316156126f0576001600160a01b038316600090815261019560205260408120819061269d90612eb985612ba7565b91509150846001600160a01b03167fdec2bacdd2f05b59de34da9b523dff8be42e5e38e818c82fdb0bae774387a72483836040516126e5929190918252602082015260400190565b60405180910390a250505b6001600160a01b038216156109c8576001600160a01b038216600090815261019560205260408120819061272790612b9b85612ba7565b91509150836001600160a01b03167fdec2bacdd2f05b59de34da9b523dff8be42e5e38e818c82fdb0bae774387a724838360405161276f929190918252602082015260400190565b60405180910390a25050505050565b600054610100900460ff1680612797575060005460ff16155b6127b35760405162461bcd60e51b815260040161097e90613377565b600054610100900460ff16158015610dfa576000805460ff1961ff0019909116610100171660011790558015610a7e576000805461ff001916905550565b600054610100900460ff168061280a575060005460ff16155b6128265760405162461bcd60e51b815260040161097e90613377565b600054610100900460ff16158015612851576000805460ff1961ff0019909116610100171660011790555b8251612864906036906020860190612f2e565b508151612878906037906020850190612f2e565b5080156109c8576000805461ff0019169055505050565b600054610100900460ff16806128a8575060005460ff16155b6128c45760405162461bcd60e51b815260040161097e90613377565b600054610100900460ff161580156128ef576000805460ff1961ff0019909116610100171660011790555b6097805460ff191690558015610a7e576000805461ff001916905550565b600054610100900460ff1680612926575060005460ff16155b6129425760405162461bcd60e51b815260040161097e90613377565b600054610100900460ff1615801561296d576000805460ff1961ff0019909116610100171660011790555b825160208085019190912083519184019190912061012d9190915561012e5580156109c8576000805461ff0019169055505050565b600054610100900460ff16806129bb575060005460ff16155b6129d75760405162461bcd60e51b815260040161097e90613377565b600054610100900460ff16158015612a02576000805460ff1961ff0019909116610100171660011790555b7f6e71edae12b1b97f4d1f60370fef10105fa2faae0126114a169c64845d6126c9610162558015610a56576000805461ff00191690555050565b6001600160a01b03838116600090815261019460205260408082205485841683529120546109c89291821691168361263f565b60608315612a7e57508161099a565b825115612a8e5782518084602001fd5b8160405162461bcd60e51b815260040161097e9190613344565b6001600160a01b038216612afe5760405162461bcd60e51b815260206004820152601f60248201527f45524332303a206d696e7420746f20746865207a65726f206164647265737300604482015260640161097e565b612b0a60008383612145565b8060356000828254612b1c91906133c5565b90915550506001600160a01b03821660009081526033602052604081208054839290612b499084906133c5565b90915550506040518181526001600160a01b038316906000907fddf252ad1be2c89b69c2b068fc378daa952ba7f163c4a11628f55a4df523b3ef9060200160405180910390a3610a5660008383612190565b600061099a82846133c5565b825460009081908015612c005785612bc0600183613410565b81548110612bde57634e487b7160e01b600052603260045260246000fd5b60009182526020909120015464010000000090046001600160e01b0316612c03565b60005b6001600160e01b03169250612c1c83858763ffffffff16565b9150600081118015612c6857504386612c36600184613410565b81548110612c5457634e487b7160e01b600052603260045260246000fd5b60009182526020909120015463ffffffff16145b15612cd657612c7682612ec5565b86612c82600184613410565b81548110612ca057634e487b7160e01b600052603260045260246000fd5b9060005260206000200160000160046101000a8154816001600160e01b0302191690836001600160e01b03160217905550612d4f565b856040518060400160405280612ceb43611bbe565b63ffffffff168152602001612cff85612ec5565b6001600160e01b039081169091528254600181018455600093845260209384902083519101805493909401519091166401000000000263ffffffff91821663ffffffff1990931692909217161790555b50935093915050565b6001600160a01b038216612db85760405162461bcd60e51b815260206004820152602160248201527f45524332303a206275726e2066726f6d20746865207a65726f206164647265736044820152607360f81b606482015260840161097e565b612dc482600083612145565b6001600160a01b03821660009081526033602052604090205481811015612e385760405162461bcd60e51b815260206004820152602260248201527f45524332303a206275726e20616d6f756e7420657863656564732062616c616e604482015261636560f01b606482015260840161097e565b6001600160a01b0383166000908152603360205260408120838303905560358054849290612e67908490613410565b90915550506040518281526000906001600160a01b038516907fddf252ad1be2c89b69c2b068fc378daa952ba7f163c4a11628f55a4df523b3ef9060200160405180910390a36109c883600084612190565b600061099a8284613410565b60006001600160e01b03821115611c235760405162461bcd60e51b815260206004820152602760248201527f53616665436173743a2076616c756520646f65736e27742066697420696e20326044820152663234206269747360c81b606482015260840161097e565b828054612f3a9061346a565b90600052602060002090601f016020900481019282612f5c5760008555612fa2565b82601f10612f7557805160ff1916838001178555612fa2565b82800160010185558215612fa2579182015b82811115612fa2578251825591602001919060010190612f87565b50611c239291505b80821115611c235760008155600101612faa565b80356001600160a01b038116811461084357600080fd5b803560ff8116811461084357600080fd5b600060208284031215612ff7578081fd5b61099a82612fbe565b60008060408385031215613012578081fd5b61301b83612fbe565b915061302960208401612fbe565b90509250929050565b600080600060608486031215613046578081fd5b61304f84612fbe565b925061305d60208501612fbe565b9150604084013590509250925092565b600080600080600080600060e0888a031215613087578283fd5b61309088612fbe565b965061309e60208901612fbe565b955060408801359450606088013593506130ba60808901612fd5565b925060a0880135915060c0880135905092959891949750929550565b600080604083850312156130e8578182fd5b6130f183612fbe565b9150602083013567ffffffffffffffff8082111561310d578283fd5b818501915085601f830112613120578283fd5b813581811115613132576131326134df565b604051601f8201601f19908116603f0116810190838211818310171561315a5761315a6134df565b81604052828152886020848701011115613172578586fd5b82602086016020830137856020848301015280955050505050509250929050565b600080604083850312156131a5578182fd5b6131ae83612fbe565b946020939093013593505050565b60008060008060008060c087890312156131d4578182fd5b6131dd87612fbe565b955060208701359450604087013593506131f960608801612fd5565b92506080870135915060a087013590509295509295509295565b60008060408385031215613225578182fd5b61322e83612fbe565b9150602083013563ffffffff81168114613246578182fd5b809150509250929050565b600060208284031215613262578081fd5b5035919050565b6000806040838503121561327b578182fd5b8235915061302960208401612fbe565b60006020828403121561329c578081fd5b81356001600160e01b03198116811461099a578182fd5b600082516132c5818460208701613427565b9190910192915050565b60007f416363657373436f6e74726f6c3a206163636f756e742000000000000000000082528351613307816017850160208801613427565b7001034b99036b4b9b9b4b733903937b6329607d1b6017918401918201528351613338816028840160208801613427565b01602801949350505050565b6000602082528251806020840152613363816040850160208701613427565b601f01601f19169190910160400192915050565b6020808252602e908201527f496e697469616c697a61626c653a20636f6e747261637420697320616c72656160408201526d191e481a5b9a5d1a585b1a5e995960921b606082015260800190565b600082198211156133d8576133d86134b3565b500190565b6000826133ec576133ec6134c9565b500490565b600081600019048311821515161561340b5761340b6134b3565b500290565b600082821015613422576134226134b3565b500390565b60005b8381101561344257818101518382015260200161342a565b8381111561163c5750506000910152565b600081613462576134626134b3565b506000190190565b60028104600182168061347e57607f821691505b6020821081141561213f57634e487b7160e01b600052602260045260246000fd5b6000826134ae576134ae6134c9565b500690565b634e487b7160e01b600052601160045260246000fd5b634e487b7160e01b600052601260045260246000fd5b634e487b7160e01b600052604160045260246000fdfe65d7a28e3265b37a6474929f336521b332c1681b933f6cb9f3376673440d862a416464726573733a206c6f772d6c6576656c2064656c65676174652063616c6c206661696c6564a2646970667358221220844550cbddb7681a827cedf64053c20dca9b0a00d9e2547c9c0bdf0b3b624b4364736f6c63430008020033",
  "linkReferences": {},
  "deployedLinkReferences": {}
}